{
  "transactions": [
    {
      "hash": "0x80f7a0f63bf96b4f86a682508a9465fbbe0b3822e5fd95fb0ce1ef4c90dc2c74",
      "transactionType": "CALL",
      "contractName": null,
      "contractAddress": "0x3287ec4f30f18230c4e0e9ac0395923371bcd1bc",
      "function": "approve(address,uint256)",
      "arguments": [
        "0xeBEEEb9764e4bE3D7C32272214f314b5c5942Efc",
        "1000000000000000000000"
      ],
      "transaction": {
        "from": "0x655640a821f810c728aa5892453f3dca58050bcf",
        "to": "0x3287ec4f30f18230c4e0e9ac0395923371bcd1bc",
        "gas": "0xf917",
        "value": "0x0",
        "input": "0x095ea7b3000000000000000000000000ebeeeb9764e4be3d7c32272214f314b5c5942efc00000000000000000000000000000000000000000000003635c9adc5dea00000",
        "nonce": "0xa",
        "chainId": "0x45b"
      },
      "additionalContracts": [],
      "isFixedGasLimit": false
    },
    {
      "hash": "0x8fb17ce151c670959cb142ad95f9f3a985b89cc3a52df8c4b539332aa542a5d9",
      "transactionType": "CALL",
      "contractName": null,
      "contractAddress": "0xebeeeb9764e4be3d7c32272214f314b5c5942efc",
      "function": "bridgeToDiam(address,uint256,string)",
      "arguments": [
        "0x3287ec4f30f18230C4e0e9AC0395923371BcD1bc",
        "1000000000000000000",
        "\"gg\""
      ],
      "transaction": {
        "from": "0x655640a821f810c728aa5892453f3dca58050bcf",
        "to": "0xebeeeb9764e4be3d7c32272214f314b5c5942efc",
        "gas": "0x260d2",
        "value": "0x0",
        "input": "0x7f79bf590000000000000000000000003287ec4f30f18230c4e0e9ac0395923371bcd1bc0000000000000000000000000000000000000000000000000de0b6b3a7640000000000000000000000000000000000000000000000000000000000000000006000000000000000000000000000000000000000000000000000000000000000026767000000000000000000000000000000000000000000000000000000000000",
        "nonce": "0xb",
        "chainId": "0x45b"
      },
      "additionalContracts": [],
      "isFixedGasLimit": false
    }
  ],
  "receipts": [
    {
      "status": "0x1",
      "cumulativeGasUsed": "0xac23",
      "logs": [
        {
          "address": "0x3287ec4f30f18230c4e0e9ac0395923371bcd1bc",
          "topics": [
            "0x8c5be1e5ebec7d5bd14f71427d1e84f3dd0314c0f7b2291e5b200ac8c7c3b925",
            "0x000000000000000000000000655640a821f810c728aa5892453f3dca58050bcf",
            "0x000000000000000000000000ebeeeb9764e4be3d7c32272214f314b5c5942efc"
          ],
          "data": "0x00000000000000000000000000000000000000000000003635c9adc5dea00000",
          "blockHash": "0x8ca7cf8f2cd1a461a70d726652a7c659ddd167de69c268393c1b8355d3a4af62",
          "blockNumber": "0x147ee80",
          "transactionHash": "0x80f7a0f63bf96b4f86a682508a9465fbbe0b3822e5fd95fb0ce1ef4c90dc2c74",
          "transactionIndex": "0x0",
          "logIndex": "0x0",
          "removed": false
        }
      ],
      "logsBloom": "0x00000000000000000000000000000000000000001000000000000000000000000000000000000000000000000000000000000000000000002000000000200000000000000000010000000010000000400000000000000000000000000000000000000000000000000000000000000000000000000000000000000000000000000000000000000000000000000000000000000000000000000000000000000000020000000000000000000000000000000000000000000000000000000000000000000000000000000000000000000000000000000000000000000000000000000010400000008000000000000000000000000020000000000000001000000000",
      "type": "0x0",
      "transactionHash": "0x80f7a0f63bf96b4f86a682508a9465fbbe0b3822e5fd95fb0ce1ef4c90dc2c74",
      "transactionIndex": "0x0",
      "blockHash": "0x8ca7cf8f2cd1a461a70d726652a7c659ddd167de69c268393c1b8355d3a4af62",
      "blockNumber": "0x147ee80",
      "gasUsed": "0xac23",
      "effectiveGasPrice": "0x6fc23ac00",
      "from": "0x655640a821f810c728aa5892453f3dca58050bcf",
      "to": "0x3287ec4f30f18230c4e0e9ac0395923371bcd1bc",
      "contractAddress": null
    },
    {
      "status": "0x1",
      "cumulativeGasUsed": "0x1a3af",
      "logs": [
        {
          "address": "0x3287ec4f30f18230c4e0e9ac0395923371bcd1bc",
          "topics": [
            "0xddf252ad1be2c89b69c2b068fc378daa952ba7f163c4a11628f55a4df523b3ef",
            "0x000000000000000000000000655640a821f810c728aa5892453f3dca58050bcf",
            "0x000000000000000000000000ebeeeb9764e4be3d7c32272214f314b5c5942efc"
          ],
          "data": "0x0000000000000000000000000000000000000000000000000de0b6b3a7640000",
          "blockHash": "0xa79db79df694b20dd30c1d22ebdadef6ddcff1bb5588ebed55bc1a1ff7447816",
          "blockNumber": "0x147ee83",
          "transactionHash": "0x8fb17ce151c670959cb142ad95f9f3a985b89cc3a52df8c4b539332aa542a5d9",
          "transactionIndex": "0x0",
          "logIndex": "0x0",
          "removed": false
        },
        {
          "address": "0xebeeeb9764e4be3d7c32272214f314b5c5942efc",
          "topics": [
            "0x00433c2536ed7cf7224839116d8b29017f60d75a15e07a30092d23774c424531"
          ],
          "data": "0x000000000000000000000000655640a821f810c728aa5892453f3dca58050bcf00000000000000000000000000000000000000000000000000000000000000600000000000000000000000000000000000000000000000000de0b6b3a764000000000000000000000000000000000000000000000000000000000000000000045553444300000000000000000000000000000000000000000000000000000000",
          "blockHash": "0xa79db79df694b20dd30c1d22ebdadef6ddcff1bb5588ebed55bc1a1ff7447816",
          "blockNumber": "0x147ee83",
          "transactionHash": "0x8fb17ce151c670959cb142ad95f9f3a985b89cc3a52df8c4b539332aa542a5d9",
          "transactionIndex": "0x0",
          "logIndex": "0x1",
          "removed": false
        }
      ],
      "logsBloom": "0x00000000000000000000000000000000000000001000000000000000000000000000000000000000000000000000000000000000000000002000000000000000000000000000010000000018000000400000000000000000000000000000000000000000000000000000000004000000000000000000000000000010000010000000000000000000000000000000000000000000000000000000000000000000000000010000000010000000000000000000000000000000000000000000000000000002000000000000000000000000000000000000000000000000000000000000400000008000040002000000000000000020000000000000001000000000",
      "type": "0x0",
      "transactionHash": "0x8fb17ce151c670959cb142ad95f9f3a985b89cc3a52df8c4b539332aa542a5d9",
      "transactionIndex": "0x0",
      "blockHash": "0xa79db79df694b20dd30c1d22ebdadef6ddcff1bb5588ebed55bc1a1ff7447816",
      "blockNumber": "0x147ee83",
      "gasUsed": "0x1a3af",
      "effectiveGasPrice": "0x6fc23ac00",
      "from": "0x655640a821f810c728aa5892453f3dca58050bcf",
      "to": "0xebeeeb9764e4be3d7c32272214f314b5c5942efc",
      "contractAddress": null
    }
  ],
  "libraries": [],
  "pending": [],
  "returns": {},
  "timestamp": 1721138693,
  "chain": 1115,
  "commit": "5314457"
}