{
  "transactions": [
    {
      "hash": "0x7ec1bec3d17a52636e956d8ac5188aa153e4c34c4ff0a4723ac03db3130a26d2",
      "transactionType": "CALL",
      "contractName": null,
      "contractAddress": "0xc5c0d675af278064d3212fc308139c9e7f8576f5",
      "function": "addToken(address,string)",
      "arguments": [
        "0x729b949D3ffA75036FFB1cEd8Ea85b085D684F8a",
        "\"USDC\""
      ],
      "transaction": {
        "from": "0x69605b7a74d967a3da33a20c1b94031bc6caf27c",
        "to": "0xc5c0d675af278064d3212fc308139c9e7f8576f5",
        "gas": "0x1788d",
        "value": "0x0",
        "input": "0x2c8da560000000000000000000000000729b949d3ffa75036ffb1ced8ea85b085d684f8a000000000000000000000000000000000000000000000000000000000000004000000000000000000000000000000000000000000000000000000000000000045553444300000000000000000000000000000000000000000000000000000000",
        "nonce": "0x27",
        "chainId": "0x61"
      },
      "additionalContracts": [],
      "isFixedGasLimit": false
    },
    {
      "hash": "0x6d709bc8dd9f5ec9047d635d8c0ab48321de8f8654b7af9c09dac585fa255da2",
      "transactionType": "CALL",
      "contractName": null,
      "contractAddress": "0xc5c0d675af278064d3212fc308139c9e7f8576f5",
      "function": "addToken(address,string)",
      "arguments": [
        "0x511eAa03850ae1F102B2Ec10ECcc08DD8dB390B2",
        "\"USDT\""
      ],
      "transaction": {
        "from": "0x69605b7a74d967a3da33a20c1b94031bc6caf27c",
        "to": "0xc5c0d675af278064d3212fc308139c9e7f8576f5",
        "gas": "0x1788d",
        "value": "0x0",
        "input": "0x2c8da560000000000000000000000000511eaa03850ae1f102b2ec10eccc08dd8db390b2000000000000000000000000000000000000000000000000000000000000004000000000000000000000000000000000000000000000000000000000000000045553445400000000000000000000000000000000000000000000000000000000",
        "nonce": "0x28",
        "chainId": "0x61"
      },
      "additionalContracts": [],
      "isFixedGasLimit": false
    },
    {
      "hash": "0x99149e05c1f30bf68200e280fbf97224f669ab0683f1a1e514da31416692ac0b",
      "transactionType": "CALL",
      "contractName": null,
      "contractAddress": "0xc5c0d675af278064d3212fc308139c9e7f8576f5",
      "function": "addToken(address,string)",
      "arguments": [
        "0x6B179040275f6DA36Dbc9564dE73B3B0DC155De8",
        "\"ETH\""
      ],
      "transaction": {
        "from": "0x69605b7a74d967a3da33a20c1b94031bc6caf27c",
        "to": "0xc5c0d675af278064d3212fc308139c9e7f8576f5",
        "gas": "0x18ea3",
        "value": "0x0",
        "input": "0x2c8da5600000000000000000000000006b179040275f6da36dbc9564de73b3b0dc155de8000000000000000000000000000000000000000000000000000000000000004000000000000000000000000000000000000000000000000000000000000000034554480000000000000000000000000000000000000000000000000000000000",
        "nonce": "0x29",
        "chainId": "0x61"
      },
      "additionalContracts": [],
      "isFixedGasLimit": false
    }
  ],
  "receipts": [
    {
      "status": "0x1",
      "cumulativeGasUsed": "0xc1a3f",
      "logs": [],
      "logsBloom": "0x00000000000000000000000000000000000000000000000000000000000000000000000000000000000000000000000000000000000000000000000000000000000000000000000000000000000000000000000000000000000000000000000000000000000000000000000000000000000000000000000000000000000000000000000000000000000000000000000000000000000000000000000000000000000000000000000000000000000000000000000000000000000000000000000000000000000000000000000000000000000000000000000000000000000000000000000000000000000000000000000000000000000000000000000000000000",
      "type": "0x0",
      "transactionHash": "0x7ec1bec3d17a52636e956d8ac5188aa153e4c34c4ff0a4723ac03db3130a26d2",
      "transactionIndex": "0x4",
      "blockHash": "0x2a6edc5092388e77f1cdb80e7ce53e6b4125b6f3c0fd637184586e60dea41474",
      "blockNumber": "0x2800843",
      "gasUsed": "0x1109f",
      "effectiveGasPrice": "0x12d00e280",
      "from": "0x69605b7a74d967a3da33a20c1b94031bc6caf27c",
      "to": "0xc5c0d675af278064d3212fc308139c9e7f8576f5",
      "contractAddress": null
    },
    {
      "status": "0x1",
      "cumulativeGasUsed": "0x1b57e",
      "logs": [],
      "logsBloom": "0x00000000000000000000000000000000000000000000000000000000000000000000000000000000000000000000000000000000000000000000000000000000000000000000000000000000000000000000000000000000000000000000000000000000000000000000000000000000000000000000000000000000000000000000000000000000000000000000000000000000000000000000000000000000000000000000000000000000000000000000000000000000000000000000000000000000000000000000000000000000000000000000000000000000000000000000000000000000000000000000000000000000000000000000000000000000",
      "type": "0x0",
      "transactionHash": "0x6d709bc8dd9f5ec9047d635d8c0ab48321de8f8654b7af9c09dac585fa255da2",
      "transactionIndex": "0x1",
      "blockHash": "0x69b691919afd84429ab4639e93380fff62414bf422e9468b4ac719416d919b5e",
      "blockNumber": "0x2800846",
      "gasUsed": "0x1109f",
      "effectiveGasPrice": "0x12d00e280",
      "from": "0x69605b7a74d967a3da33a20c1b94031bc6caf27c",
      "to": "0xc5c0d675af278064d3212fc308139c9e7f8576f5",
      "contractAddress": null
    },
    {
      "status": "0x1",
      "cumulativeGasUsed": "0x3f19d",
      "logs": [],
      "logsBloom": "0x00000000000000000000000000000000000000000000000000000000000000000000000000000000000000000000000000000000000000000000000000000000000000000000000000000000000000000000000000000000000000000000000000000000000000000000000000000000000000000000000000000000000000000000000000000000000000000000000000000000000000000000000000000000000000000000000000000000000000000000000000000000000000000000000000000000000000000000000000000000000000000000000000000000000000000000000000000000000000000000000000000000000000000000000000000000",
      "type": "0x0",
      "transactionHash": "0x99149e05c1f30bf68200e280fbf97224f669ab0683f1a1e514da31416692ac0b",
      "transactionIndex": "0x3",
      "blockHash": "0x1e9571c3db33916b41021953e53d7d996182fcacd9afa46f4cf21ce6a8b0b2e6",
      "blockNumber": "0x2800849",
      "gasUsed": "0x11093",
      "effectiveGasPrice": "0x12d00e280",
      "from": "0x69605b7a74d967a3da33a20c1b94031bc6caf27c",
      "to": "0xc5c0d675af278064d3212fc308139c9e7f8576f5",
      "contractAddress": null
    }
  ],
  "libraries": [],
  "pending": [],
  "returns": {},
  "timestamp": 1720554556,
  "chain": 97,
  "commit": "5314457"
}